:020000020000FC
:0200000020C01E
:0200040039C001
:020008003EC0F8
:02002C002EC0E4
:1000400031C00FE50DBF08E00EBF33270FE70ABB35
:100050000FEF07BB08BB0FE005BF00EC0BBF05E0CF
:1000600009BF00E002BF07E207B90FE806B9A5E93A
:10007000B0E04AE07894FFCFA5E9B0E04AE005E0BF
:1000800003BF54E01895369A18955A9551F454E0E8
:100090002D91209528BB4A9521F42FEF28BB0027EE
:1000A00003BF189524B125B12D93209528BB4A95FF
:1000B00031F43698A5E9B0E04AE02FEF28BB189557
:00000001FF
