:020000020000FC
:100000000C941100E199FECF0FBB1EBB2DBBE29AF1
:10001000E19A0895E199FECF1EBB0FBBE09A2DB384
:100020000895A0E6B0E021E000E12D9323950A9524
:10003000E1F7C0E7D0E03FE00BE039933A950A954D
:10004000E1F7A0E6B0E0C0E7D0E0ECE9F0E050E096
:1000500000E12D9110E1C0E7D0E03991231711F4B0
:10006000219353951A95C9F70A9599F74FE54DBF16
:1000700048E04EBFACE9B0E04D91052FE0E0F0E084
:100080000F931F932F930F2F1E2F252FBBDF2F9121
:100090001F910F91E3950F931F932F930F2F1E2FF7
:1000A000242FB0DF2F911F910F91E3954D910A9569
:0400B00091F7FFCFF6
:00000001FF
